{
  "contractName": "PesGrid",
  "abi": [
    {
      "constant": true,
      "inputs": [],
      "name": "available",
      "outputs": [
        {
          "internalType": "uint256",
          "name": "",
          "type": "uint256"
        }
      ],
      "payable": false,
      "stateMutability": "view",
      "type": "function"
    },
    {
      "constant": true,
      "inputs": [],
      "name": "buyer_count",
      "outputs": [
        {
          "internalType": "uint256",
          "name": "",
          "type": "uint256"
        }
      ],
      "payable": false,
      "stateMutability": "view",
      "type": "function"
    },
    {
      "constant": true,
      "inputs": [
        {
          "internalType": "uint256",
          "name": "",
          "type": "uint256"
        }
      ],
      "name": "buyers",
      "outputs": [
        {
          "internalType": "uint256",
          "name": "power",
          "type": "uint256"
        },
        {
          "internalType": "string",
          "name": "name",
          "type": "string"
        }
      ],
      "payable": false,
      "stateMutability": "view",
      "type": "function"
    },
    {
      "constant": true,
      "inputs": [],
      "name": "consumed",
      "outputs": [
        {
          "internalType": "uint256",
          "name": "",
          "type": "uint256"
        }
      ],
      "payable": false,
      "stateMutability": "view",
      "type": "function"
    },
    {
      "constant": true,
      "inputs": [],
      "name": "sold",
      "outputs": [
        {
          "internalType": "uint256",
          "name": "",
          "type": "uint256"
        }
      ],
      "payable": false,
      "stateMutability": "view",
      "type": "function"
    },
    {
      "constant": true,
      "inputs": [],
      "name": "total",
      "outputs": [
        {
          "internalType": "uint256",
          "name": "",
          "type": "uint256"
        }
      ],
      "payable": false,
      "stateMutability": "view",
      "type": "function"
    },
    {
      "constant": false,
      "inputs": [
        {
          "internalType": "string",
          "name": "_name",
          "type": "string"
        },
        {
          "internalType": "uint256",
          "name": "_power",
          "type": "uint256"
        }
      ],
      "name": "addbuyer",
      "outputs": [],
      "payable": false,
      "stateMutability": "nonpayable",
      "type": "function"
    },
    {
      "constant": false,
      "inputs": [
        {
          "internalType": "uint256",
          "name": "_amount",
          "type": "uint256"
        }
      ],
      "name": "addconsumption",
      "outputs": [],
      "payable": false,
      "stateMutability": "nonpayable",
      "type": "function"
    },
    {
      "constant": false,
      "inputs": [
        {
          "internalType": "uint256",
          "name": "_eamount",
          "type": "uint256"
        }
      ],
      "name": "addpanels",
      "outputs": [],
      "payable": false,
      "stateMutability": "nonpayable",
      "type": "function"
    }
  ],
  "bytecode": "0x6080604052600a600055600060015560006002556001546002540160005403600355600060045534801561003257600080fd5b50610580806100426000396000f3fe608060405234801561001057600080fd5b50600436106100935760003560e01c8063901389c611610066578063901389c614610110578063a45107f3146101d5578063b23157f414610203578063f2aa821814610221578063fa0eaead146102cf57610093565b806302c7e7af146100985780632ddbd13a146100b657806348a0d754146100d457806367636574146100f2575b600080fd5b6100a06102fd565b6040518082815260200191505060405180910390f35b6100be610303565b6040518082815260200191505060405180910390f35b6100dc610309565b6040518082815260200191505060405180910390f35b6100fa61030f565b6040518082815260200191505060405180910390f35b6101d36004803603604081101561012657600080fd5b810190808035906020019064010000000081111561014357600080fd5b82018360208201111561015557600080fd5b8035906020019184600183028401116401000000008311171561017757600080fd5b91908080601f016020809104026020016040519081016040528093929190818152602001838380828437600081840152601f19601f82011690508083019250505050505050919291929080359060200190929190505050610315565b005b610201600480360360208110156101eb57600080fd5b810190808035906020019092919050505061039f565b005b61020b6103c2565b6040518082815260200191505060405180910390f35b61024d6004803603602081101561023757600080fd5b81019080803590602001909291905050506103c8565b6040518083815260200180602001828103825283818151815260200191508051906020019080838360005b83811015610293578082015181840152602081019050610278565b50505050905090810190601f1680156102c05780820380516001836020036101000a031916815260200191505b50935050505060405180910390f35b6102fb600480360360208110156102e557600080fd5b8101908080359060200190929190505050610484565b005b60025481565b60005481565b60035481565b60015481565b80600260008282540192505081905550806003600082825403925050819055506004600081548092919060010191905055506040518060400160405280828152602001838152506005600060045481526020019081526020016000206000820151816000015560208201518160010190805190602001906103979291906104a6565b509050505050565b806001600082825401925050819055508060036000828254039250508190555050565b60045481565b6005602052806000526040600020600091509050806000015490806001018054600181600116156101000203166002900480601f01602080910402602001604051908101604052809291908181526020018280546001816001161561010002031660029004801561047a5780601f1061044f5761010080835404028352916020019161047a565b820191906000526020600020905b81548152906001019060200180831161045d57829003601f168201915b5050505050905082565b8060008082825401925050819055508060036000828254019250508190555050565b828054600181600116156101000203166002900490600052602060002090601f016020900481019282601f106104e757805160ff1916838001178555610515565b82800160010185558215610515579182015b828111156105145782518255916020019190600101906104f9565b5b5090506105229190610526565b5090565b61054891905b8082111561054457600081600090555060010161052c565b5090565b9056fea265627a7a723158206a7606de68cab01ada92af99b10fbf813832eeae9e51a71f7299ce819b1efbc964736f6c63430005100032",
  "source": "pragma solidity ^0.5.0;\r\n\r\ncontract PesGrid\r\n{\r\n\tuint public total = 10;\r\n\tuint public consumed = 0;\r\n\tuint public sold = 0;\r\n\tuint public available = total-(sold+consumed);\r\n\tuint public buyer_count = 0;\r\n\t\r\n\tstruct buyer\r\n\t{\r\n\t\tuint power;\r\n\t\tstring name;\r\n\t}\r\n\t\r\n\tmapping(uint => buyer) public buyers;\r\n\t\r\n\tfunction addbuyer(string memory _name, uint _power) public\r\n\t{\t\r\n\t\tsold += _power;\r\n\t\tavailable -= _power;\r\n\t\tbuyer_count++;\r\n\t\tbuyers[buyer_count] = buyer(_power, _name);\r\n\t}\r\n\t\r\n\tfunction addconsumption(uint _amount) public\r\n\t{\r\n\t\tconsumed += _amount;\r\n\t\tavailable -= _amount;\r\n\t}\r\n\t\r\n\tfunction addpanels(uint _eamount) public\r\n\t{\r\n\t\ttotal += _eamount;\r\n\t\tavailable += _eamount;\r\n\t}\r\n\r\n}",
  "sourcePath": "C:/Users/aasim/Desktop/Block chain/pesgrid/contracts/PesGrid.sol",
  "compiler": {
    "name": "solc",
    "version": "0.5.16+commit.9c3226ce.Emscripten.clang"
  },
  "schemaVersion": "3.0.22",
  "updatedAt": "2020-04-04T09:43:19.572Z",
  "networkType": "ethereum",
  "devdoc": {
    "methods": {}
  },
  "userdoc": {
    "methods": {}
  }
}